:020000040800F2
:1000000000000120050300080B030008110300088D
:1000100033030008390300085B03000800000000F8
:100020000000000000000000000000007D03000848
:100030008303000800000000890300088F03000804
:10004000AD030008AD030008AD030008AD030008D0
:10005000AD030008AD030008AD030008AD030008C0
:10006000AD030008AD030008AD030008AD030008B0
:10007000AD030008AD030008AD030008AD030008A0
:10008000AD030008AD030008AD0300080000000048
:10009000000000000000000000000000AD030008A8
:1000A000AD030008AD030008AD030008AD03000870
:1000B000AD030008AD030008AD030008AD03000860
:1000C000AD030008AD030008AD030008AD03000850
:1000D000AD030008AD030008AD03000800000000F8
:1000E000AD030008AD030008AD03000800000000E8
:1000F000000000000000000000000000AD03000848
:1001000000000000AD030008AD030008AD030008C7
:1001100000000000000000000000000000000000DF
:10012000AD030008AD030008AD030008AD030008EF
:10013000AD03000800000000000000000000000007
:10014000000000000000000000000000AD030008F7
:10015000AD030008AD030008AD030008AD030008BF
:10016000AD030008AD03000800000000000000001F
:10017000000000000000000000000000000000007F
:1001800000000000AD0300080000000000000000B7
:10019000AD03000880B596B000AF00F037F94F4BC3
:1001A0007B6524E07B6D1A1D7A651B683B647B6D63
:1001B0001A1D7A651B68FB637B6D1A1D7A651B68C7
:1001C000BB633B6C7B63FB6B3B63BB6BFB623B6B5F
:1001D000BB6207E07A6B131D7B63BB6A191DB962B2
:1001E00012681A60FA6ABB6A9A42F3D800BF7B6D44
:1001F0003B4A9342D6D33B4B3B651AE03B6D1A1DFD
:100200003A651B68BB643B6D1A1D3A651B687B64CD
:10021000BB6C7B627B6C3B627B6AFB6104E0FB69CD
:100220001A1DFA6100221A603A6AFB699A42F6D8EE
:1002300000BF3B6D2C4A9342E0D300F0F5F83A1D25
:1002400007F108031146184600F0CEF8274A284B5C
:10025000D31A9B103B610023FB6007E0244AFB6834
:1002600052F823309847FB680133FB603A69FB681A
:100270009A42F3DC1F4A204BD31A9B103B610023A8
:10028000FB6007E01C4AFB6852F823309847FB6884
:100290000133FB603A69FB689A42F3DC00BFBB683C
:1002A0007A681146184600F00BFAF864134A144BAA
:1002B000D31A9B10BB61BB697B6108E07B69013B82
:1002C0000F4A52F8233098477B69013B7B617B6979
:1002D000002BF3DC00BFF86C00F080F8B4030008DA
:1002E000CC030008CC030008DC030008DC03000892
:1002F000DC030008DC030008DC030008DC03000862
:10030000DC0300082548004700BF80B400AFFEE7CB
:100310001EF0040F0CBFEFF30880EFF30980714665
:100320001F4A104700BF80B483B000AF78603960C7
:10033000FEE780B400AFFEE71EF0040F0CBFEFF342
:100340000880EFF309807146164A104700BF80B459
:1003500083B000AF78603960FEE71EF0040F0CBF79
:10036000EFF30880EFF3098071460F4A104700BF92
:1003700080B483B000AF78603960FEE780B400AF2E
:10038000FEE780B400AFFEE780B400AFFEE780B4C4
:1003900000AF00BFBD4680BC70470000950100085B
:1003A000270300084F0300087103000880B400AF62
:0203B000FEE766
:1003B4006C100008000000200C0000206C100008E5
:1003C40000000010000000100C00002010000020AD
:0803D400000000100000001001
:1003DC0080B582B000AF786000F03CF880B483B098
:1003EC0000AF786039607B6801221A603B68034A71
:1003FC001A6000BF0C37BD4680BC7047000000205F
:10040C0080B500AF00F02AF8024B034A9A6000BF97
:10041C0080BD00BF00ED00E00000000880B500AF1B
:10042C0000F028F800BF80BD80B400AFBFF34F8F41
:10043C0000BF064BDB6803F4E0620449044B134332
:10044C00CB60BFF34F8F00BF00BFFDE700ED00E0B6
:10045C000400FA0580B500AFFFF7E6FF80B400AFEB
:10046C00034B4FF000629A6000BFBD4680BC7047E2
:10047C0000ED00E080B487B000AF00233B610023A7
:10048C007B610223FB600023BB6002237B60344B47
:10049C009B6803F00C033B613B69082B11D03B6953
:1004AC00082B44D83B69002B03D03B69042B04D0A8
:1004BC003DE02C4B2C4A1A603DE02A4B2B4A1A602B
:1004CC0039E0274B5B689B0D03F00103BB60244BA9
:1004DC005B6803F03F037B60BB68002B0CD0234AA6
:1004EC007B68B2FBF3F31E4A52689209C2F308020E
:1004FC0002FB03F37B610BE01B4A7B68B2FBF3F35B
:10050C00174A52689209C2F3080202FB03F37B619B
:10051C00134B5B681B0C03F0030301335B00FB60A4
:10052C007A69FB68B2FBF3F30E4A136003E00D4BE0
:10053C000D4A1A6000BF0A4B9B681B0903F00F039E
:10054C000B4AD35C3B61074B1A683B6922FA03F3F5
:10055C00044A136000BF1C37BD4680BC704700BF07
:10056C0000380240080000200024F40000127A0039
:10057C001410000890B585B000AF03460A46FB7115
:10058C001346BB710023FB601BE0BB79002B01D130
:10059C00412000E04220FB68D9B2FA790D4C134699
:1005AC00DB009B1AE218FB6813441B78002B14BF6A
:1005BC0001230023DBB21A4600F026FCFB68013352
:1005CC00FB60FB68062BE0DD00BF00BF1437BD46A7
:1005DC0090BD00BF2410000880B485B000AF7860D7
:1005EC000023FB600023BB600023FB600BE00023B7
:1005FC00BB6002E0BB680133BB60BB68012BF9D95F
:10060C00FB680133FB60FB687A689A42EFD800BF45
:10061C0000BF1437BD4680BC704780B582B000AFB8
:10062C0000237B6000237B6010E07B68D9B2002341
:10063C000122412000F0F2F87B68D9B2002301229C
:10064C00422000F0EBF87B6801337B607B68062B63
:10065C00EBD9002301220021432000F0DFF8002316
:10066C0001220121432000F0D9F8012300220021AE
:10067C00442000F0D3F801220121432000F0C4FBF8
:10068C0000BF0837BD4680BD80B500AF00F064F8F0
:10069C00002000F06FF8012000F06CF8022000F050
:1006AC0069F8032000F066F8042000F063F800BF3E
:1006BC0080BD000080B582B000AF0223FB71002327
:1006CC00BB7100237B71FFF7DFFFFFF7A6FFFB7900
:1006DC0000211846FFF74EFFBB7901211846FFF7A2
:1006EC0049FFBB79013BBB711A48FFF775FFBB791A
:1006FC00092B07D90923BB711648FFF76DFFFB794E
:10070C00013BFB71FB79FF2BE1D10223FB71002331
:10071C00BB717B79002B0CBF01230023DBB27B71F7
:10072C007B79002B14BF01230023DBB21A46002176
:10073C00432000F069FB7B79002B0CBF01230023C5
:10074C00DBB21A460121432000F05EFB0148FFF7A3
:10075C0043FFBCE7F049020080B400AF044B1B68B8
:10076C00034A43F00103136000BFBD4680BC7047D1
:10077C000038024080B485B000AF0346FB71FB79B2
:10078C005B09FB73FB7903F01F03BB73FB7B032B30
:10079C0036D801A252F823F0B5070008CB070008A1
:1007AC00E1070008F7070008184B1B68BA7B01210A
:1007BC0001FA02F21146154A0B43136021E0144B67
:1007CC001B68BA7B012101FA02F21146104A0B4355
:1007DC00136016E00F4B1B68BA7B012101FA02F281
:1007EC0011460C4A0B4313600BE00B4B1B68BA7B96
:1007FC00012101FA02F21146074A0B43136000E093
:10080C0000BF00BF1437BD4680BC70473038024073
:10081C0034380240403802404438024090B482B030
:10082C0000AF0446084611461A462346FB710346A0
:10083C00BB710B467B7113463B71FB79413B042B1F
:10084C0000F2D08201A252F823F000BF6D0800081C
:10085C007D0900088D0A0008BF0B0008CF0C0008AA
:10086C00A44B1B68BA795200032101FA02F2D2435D
:10087C001146A04A0B4013609E4B1B687979BA79DC
:10088C00520001FA02F211469A4A0B4313607B792B
:10089C00002B35D0012B40F0A7823B79002B02D0E6
:1008AC00012B16D063E0944B1B68BA79012101FA35
:1008BC0002F2D2431146904A0B4013608E4B1B68D8
:1008CC003979BA7901FA02F211468B4A0B4313605B
:1008DC0015E0894B1B68BA79012101FA02F2D24367
:1008EC001146854A0B401360834B1B683979BA79E2
:1008FC0001FA02F21146804A0B43136000BF36E046
:10090C003B79012B02D0022B18D02FE07B4B1B68BC
:10091C00BA795200032101FA02F2D2431146774A06
:10092C000B401360754B1B68BA795200012101FA18
:10093C0002F21146714A0B43136017E06F4B1B68B0
:10094C00BA795200032101FA02F2D24311466B4AE2
:10095C000B401360694B1B68BA795200022101FAF3
:10096C0002F21146654A0B43136000BF00BF3BE225
:10097C00634B1B68BA795200032101FA02F2D2438D
:10098C0011465F4A0B4013605D4B1B687979BA794D
:10099C00520001FA02F21146594A0B4313607B795B
:1009AC00002B35D0012B40F021823B79002B02D05B
:1009BC00012B16D063E0534B1B68BA79012101FA65
:1009CC0002F2D24311464F4A0B4013604D4B1B6849
:1009DC003979BA7901FA02F211464A4A0B4313608B
:1009EC0015E0484B1B68BA79012101FA02F2D24397
:1009FC001146444A0B401360424B1B683979BA7953
:100A0C0001FA02F211463F4A0B43136000BF36E075
:100A1C003B79012B02D0022B18D02FE03A4B1B68EC
:100A2C00BA795200032101FA02F2D2431146364A36
:100A3C000B401360344B1B68BA795200012101FA48
:100A4C0002F21146304A0B43136017E02E4B1B6821
:100A5C00BA795200032101FA02F2D24311462A4A12
:100A6C000B401360284B1B68BA795200022101FA23
:100A7C0002F21146244A0B43136000BF00BFB5E1DC
:100A8C00224B1B68BA795200032101FA02F2D243BD
:100A9C0011461E4A0B4013601C4B1B687979BA79BE
:100AAC00520001FA02F21146184A0B4313607B798B
:100ABC00002B46D0012B40F09B813B79002B02D0C0
:100ACC00012B27D074E0124B1B68BA79012101FA73
:100ADC0002F2D24311460E4A0B4013600C4B1B68BA
:100AEC003979BA7901FA02F21146094A0B431360BB
:100AFC0026E000BF00000240040002400C0002404F
:100B0C0000040240040402400C04024000080240AD
:100B1C0004080240A14B1B68BA79012101FA02F2C8
:100B2C00D24311469D4A0B4013609C4B1B6839798C
:100B3C00BA7901FA02F21146984A0B43136000BFCE
:100B4C0036E03B79012B02D0022B18D02FE0944BCE
:100B5C001B68BA795200032101FA02F2D243114602
:100B6C008F4A0B4013608E4B1B68BA7952000121DF
:100B7C0001FA02F211468A4A0B43136017E0884BC4
:100B8C001B68BA795200032101FA02F2D2431146D2
:100B9C00834A0B401360824B1B68BA7952000221C6
:100BAC0001FA02F211467E4A0B43136000BF00BFEC
:100BBC001EE17C4B1B68BA795200032101FA02F248
:100BCC00D2431146774A0B401360764B1B687979F8
:100BDC00BA79520001FA02F21146724A0B431360C1
:100BEC007B79002B35D0012B40F004813B79002B15
:100BFC0002D0012B16D063E06B4B1B68BA79012134
:100C0C0001FA02F2D2431146674A0B401360664B5D
:100C1C001B683979BA7901FA02F21146624A0B4320
:100C2C00136015E0604B1B68BA79012101FA02F2DE
:100C3C00D24311465C4A0B4013605B4B1B683979FD
:100C4C00BA7901FA02F21146574A0B43136000BFFE
:100C5C0036E03B79012B02D0022B18D02FE0534BFE
:100C6C001B68BA795200032101FA02F2D2431146F1
:100C7C004E4A0B4013604D4B1B68BA795200012150
:100C8C0001FA02F21146494A0B43136017E0474B35
:100C9C001B68BA795200032101FA02F2D2431146C1
:100CAC00424A0B401360414B1B68BA795200022137
:100CBC0001FA02F211463D4A0B43136000BF00BF1C
:100CCC0098E0384B1B68BA795200032101FA02F202
:100CDC00D2431146334A0B401360324B1B6879796F
:100CEC00BA79520001FA02F211462E4A0B431360F4
:100CFC007B79002B34D0012B7ED13B79002B02D099
:100D0C00012B16D06DE0284B1B68BA79012101FA32
:100D1C0002F2D2431146244A0B401360224B1B684B
:100D2C003979BA7901FA02F211461F4A0B43136062
:100D3C0015E01D4B1B68BA79012101FA02F2D2436E
:100D4C001146194A0B401360174B1B683979BA7955
:100D5C0001FA02F21146144A0B43136000BF40E043
:100D6C003B79012B02D0022B22D039E00F4B1B68B0
:100D7C00BA795200032101FA02F2D24311460B4A0E
:100D8C000B401360094B1B68BA795200012101FA20
:100D9C0002F21146054A0B43136021E0040802409D
:100DAC000C080240000C0240040C02400C0C0240E7
:100DBC00144B1B68BA795200032101FA02F2D24398
:100DCC001146104A0B4013600E4B1B68BA79520047
:100DDC00022101FA02F211460A4A0B43136000BFCA
:100DEC0000BF09E000BF08E000BF06E000BF04E060
:100DFC0000BF02E000BF00E000BF00BF0837BD46E7
:100E0C0090BC70470C0C024080B485B000AF034618
:100E1C00FB710B46BB7113467B71734B1B68BA7924
:100E2C005200032101FA02F21A40BB795B0022FA4C
:100E3C0003F3FB736D4B1B68BA795200032101FA63
:100E4C0002F21A40BB795B0022FA03F3BB73684BC6
:100E5C001B68BA795200032101FA02F21A40BB79DD
:100E6C005B0022FA03F37B73624B1B68BA79520066
:100E7C00032101FA02F21A40BB795B0022FA03F358
:100E8C003B735C4B1B68BA795200032101FA02F2E6
:100E9C001A40BB795B0022FA03F3FB72FB79413BEE
:100EAC00042B00F2998001A252F823F0CD0E000819
:100EBC00050F00083D0F0008750F0008AD0F000866
:100ECC00FB7B002B16D04C4B1B68BA79012101FA25
:100EDC0002F2D2431146484A0B401360464B1B6842
:100EEC007979BA7901FA02F21146434A0B4313603D
:100EFC00012373E0002371E0BB7B002B16D03F4B2A
:100F0C001B68BA79012101FA02F2D24311463B4A1D
:100F1C000B401360394B1B687979BA7901FA02F2EC
:100F2C001146364A0B431360012357E0002355E06A
:100F3C007B7B002B16D0324B1B68BA79012101FA4E
:100F4C0002F2D24311462E4A0B4013602C4B1B6805
:100F5C007979BA7901FA02F21146294A0B431360E6
:100F6C0001233BE0002339E03B7B002B16D0254BC3
:100F7C001B68BA79012101FA02F2D2431146214AC7
:100F8C000B4013601F4B1B687979BA7901FA02F296
:100F9C0011461C4A0B43136001231FE000231DE084
:100FAC00FB7A002B16D0174B1B68BA79012101FA7A
:100FBC0002F2D2431146134A0B401360114B1B68CB
:100FCC007979BA7901FA02F211460E4A0B43136091
:100FDC00012303E0002301E000BF0023184614376F
:100FEC00BD4680BC704700BF0000024000040240B8
:100FFC0000080240000C024014000240140402409D
:10100C0014080240140C0240000000000000000014
:10101C000102030406070809000101010101010096
:10102C0000000001010001000101000101010000AC
:10103C000101010101010000010100010100010198
:10104C00000101010101010001000000000101018A
:0E105C00010101010101010101000101010179
:0C106C000C000020000000000024F40034
:040000050800019559
:00000001FF
